{
  "contractName": "DecentralBank",
  "abi": [
    {
      "inputs": [
        {
          "internalType": "contract Tether",
          "name": "_tether",
          "type": "address"
        },
        {
          "internalType": "contract RWD",
          "name": "_rwd",
          "type": "address"
        }
      ],
      "payable": false,
      "stateMutability": "nonpayable",
      "type": "constructor"
    },
    {
      "constant": true,
      "inputs": [
        {
          "internalType": "address",
          "name": "",
          "type": "address"
        }
      ],
      "name": "hasStaked",
      "outputs": [
        {
          "internalType": "bool",
          "name": "",
          "type": "bool"
        }
      ],
      "payable": false,
      "stateMutability": "view",
      "type": "function"
    },
    {
      "constant": true,
      "inputs": [
        {
          "internalType": "address",
          "name": "",
          "type": "address"
        }
      ],
      "name": "isStaking",
      "outputs": [
        {
          "internalType": "bool",
          "name": "",
          "type": "bool"
        }
      ],
      "payable": false,
      "stateMutability": "view",
      "type": "function"
    },
    {
      "constant": true,
      "inputs": [],
      "name": "name",
      "outputs": [
        {
          "internalType": "string",
          "name": "",
          "type": "string"
        }
      ],
      "payable": false,
      "stateMutability": "view",
      "type": "function"
    },
    {
      "constant": true,
      "inputs": [],
      "name": "owner",
      "outputs": [
        {
          "internalType": "address",
          "name": "",
          "type": "address"
        }
      ],
      "payable": false,
      "stateMutability": "view",
      "type": "function"
    },
    {
      "constant": true,
      "inputs": [],
      "name": "rwd",
      "outputs": [
        {
          "internalType": "contract RWD",
          "name": "",
          "type": "address"
        }
      ],
      "payable": false,
      "stateMutability": "view",
      "type": "function"
    },
    {
      "constant": true,
      "inputs": [
        {
          "internalType": "address",
          "name": "",
          "type": "address"
        }
      ],
      "name": "stakingBalance",
      "outputs": [
        {
          "internalType": "uint256",
          "name": "",
          "type": "uint256"
        }
      ],
      "payable": false,
      "stateMutability": "view",
      "type": "function"
    },
    {
      "constant": true,
      "inputs": [],
      "name": "tether",
      "outputs": [
        {
          "internalType": "contract Tether",
          "name": "",
          "type": "address"
        }
      ],
      "payable": false,
      "stateMutability": "view",
      "type": "function"
    },
    {
      "constant": false,
      "inputs": [
        {
          "internalType": "uint256",
          "name": "_amount",
          "type": "uint256"
        }
      ],
      "name": "depositTokens",
      "outputs": [],
      "payable": false,
      "stateMutability": "nonpayable",
      "type": "function"
    },
    {
      "constant": false,
      "inputs": [],
      "name": "unstakeTokens",
      "outputs": [],
      "payable": false,
      "stateMutability": "nonpayable",
      "type": "function"
    },
    {
      "constant": false,
      "inputs": [],
      "name": "issueTokens",
      "outputs": [],
      "payable": false,
      "stateMutability": "nonpayable",
      "type": "function"
    }
  ],
  "bytecode": "0x60c0604052600e60808190526d446563656e7472616c2042616e6b60901b60a090815261002f91600091906100a8565b5034801561003c57600080fd5b5060405161077c38038061077c8339818101604052604081101561005f57600080fd5b508051602090910151600280546001600160a01b039384166001600160a01b03199182161790915560038054939092169281169290921790556001805490911633179055610143565b828054600181600116156101000203166002900490600052602060002090601f016020900481019282601f106100e957805160ff1916838001178555610116565b82800160010185558215610116579182015b828111156101165782518255916020019190600101906100fb565b50610122929150610126565b5090565b61014091905b80821115610122576000815560010161012c565b90565b61062a806101526000396000f3fe608060405234801561001057600080fd5b506004361061009e5760003560e01c80636f49712b116100665780636f49712b1461018e5780638da5cb5b146101c8578063a5ce413b146101d0578063c93c8f34146101d8578063dd49756e146101fe5761009e565b806306fdde03146100a35780631a8972d31461012057806345bc78ab146101445780635efc071a1461017c57806360ab585214610184575b600080fd5b6100ab61021b565b6040805160208082528351818301528351919283929083019185019080838360005b838110156100e55781810151838201526020016100cd565b50505050905090810190601f1680156101125780820380516001836020036101000a031916815260200191505b509250505060405180910390f35b6101286102a9565b604080516001600160a01b039092168252519081900360200190f35b61016a6004803603602081101561015a57600080fd5b50356001600160a01b03166102b8565b60408051918252519081900360200190f35b6101286102ca565b61018c6102d9565b005b6101b4600480360360208110156101a457600080fd5b50356001600160a01b0316610377565b604080519115158252519081900360200190f35b61012861038c565b61018c61039b565b6101b4600480360360208110156101ee57600080fd5b50356001600160a01b0316610471565b61018c6004803603602081101561021457600080fd5b5035610486565b6000805460408051602060026001851615610100026000190190941693909304601f810184900484028201840190925281815292918301828280156102a15780601f10610276576101008083540402835291602001916102a1565b820191906000526020600020905b81548152906001019060200180831161028457829003601f168201915b505050505081565b6003546001600160a01b031681565b60056020526000908152604090205481565b6002546001600160a01b031681565b33600090815260056020526040902054600a90048015610374576003546040805163a9059cbb60e01b81523360048201526024810184905290516001600160a01b039092169163a9059cbb916044808201926020929091908290030181600087803b15801561034757600080fd5b505af115801561035b573d6000803e3d6000fd5b505050506040513d602081101561037157600080fd5b50505b50565b60076020526000908152604090205460ff1681565b6001546001600160a01b031681565b33600090815260056020526040902054806103fd576040805162461bcd60e51b815260206004820152601e60248201527f7374616b696e672062616c616e63652063616e6e6f74206265203c3d20300000604482015290519081900360640190fd5b33600081815260056020908152604080832083905560078252808320805460ff19169055600254815163a9059cbb60e01b815260048101959095526024850186905290516001600160a01b039091169363a9059cbb9360448083019493928390030190829087803b15801561034757600080fd5b60066020526000908152604090205460ff1681565b600081116104d0576040805162461bcd60e51b81526020600482015260126024820152710616d6f756e742063616e6e6f7420626520360741b604482015290519081900360640190fd5b600254604080516323b872dd60e01b81523360048201523060248201526044810184905290516001600160a01b03909216916323b872dd916064808201926020929091908290030181600087803b15801561052a57600080fd5b505af115801561053e573d6000803e3d6000fd5b505050506040513d602081101561055457600080fd5b5050336000908152600560209081526040808320805485019055600690915290205460ff166105c057600480546001810182556000919091527f8a35acfbc15ff81a39ae7d344fd709f28e8600b4aa8c65c6b64bfe7fe36bd19b0180546001600160a01b031916331790555b503360009081526007602090815260408083208054600160ff199182168117909255600690935292208054909116909117905556fea265627a7a7231582098e94fe9ac64c4da06a49212d8cd9dda20c97d2042d0e3d5f89d886905a1321564736f6c63430005100032",
  "source": "pragma solidity ^0.5.0;\r\n\r\nimport \"./Tether.sol\";\r\nimport \"./RWD.sol\";\r\n\r\ncontract DecentralBank {\r\n    string public name = \"Decentral Bank\";\r\n    address public owner;\r\n    Tether public tether;\r\n    RWD public rwd;\r\n\r\n    address[] stakers;\r\n\r\n    mapping(address => uint) public stakingBalance;\r\n    mapping(address => bool) public hasStaked;\r\n    mapping(address => bool) public isStaking;\r\n\r\n    constructor(Tether _tether, RWD _rwd) public {\r\n        tether = _tether;\r\n        rwd = _rwd;\r\n        owner = msg.sender;\r\n    }\r\n\r\n    // staking \r\n    function depositTokens(uint _amount) public {\r\n        require(_amount > 0, \"amount cannot be 0\");\r\n        \r\n        tether.transferFrom(msg.sender, address(this), _amount);\r\n        stakingBalance[msg.sender] += _amount;\r\n\r\n        if (!hasStaked[msg.sender]) {\r\n            stakers.push(msg.sender);\r\n        }\r\n\r\n        isStaking[msg.sender] = true;\r\n        hasStaked[msg.sender] = true;\r\n    }\r\n\r\n    // unstaking\r\n    function unstakeTokens() public {\r\n        uint balance = stakingBalance[msg.sender];\r\n        require(balance > 0, \"staking balance cannot be <= 0\");\r\n        stakingBalance[msg.sender] = 0;\r\n        isStaking[msg.sender] = false;\r\n        tether.transfer(msg.sender, balance);\r\n    }\r\n\r\n    // issue rewards\r\n    function issueTokens() public {\r\n        /*\r\n        require(msg.sender == owner, \"caller must be owner\");\r\n        for(uint i = 0 ; i < stakers.length ; ++i) {\r\n            address recipient = stakers[i];\r\n            uint balance = stakingBalance[recipient] / 9; // reward token amount = mUSDT staked / 9\r\n            if (balance > 0) {\r\n                rwd.transfer(recipient, balance);\r\n            }\r\n        }\r\n        */\r\n        uint balance = stakingBalance[msg.sender] / 10;\r\n        if (balance > 0) {\r\n            rwd.transfer(msg.sender, balance);\r\n        }\r\n    }\r\n}",
  "sourcePath": "C:\\Users\\TimOu_0911\\Desktop\\Decentral Bank\\src\\contracts\\DecentralBank.sol",
  "compiler": {
    "name": "solc",
    "version": "0.5.16+commit.9c3226ce.Emscripten.clang"
  },
  "schemaVersion": "3.4.11",
  "updatedAt": "2023-03-08T14:26:49.090Z",
  "networkType": "ethereum",
  "devdoc": {
    "methods": {}
  },
  "userdoc": {
    "methods": {}
  }
}