{
  "contractName": "RWD",
  "abi": [
    {
      "inputs": [],
      "payable": false,
      "stateMutability": "nonpayable",
      "type": "constructor"
    },
    {
      "anonymous": false,
      "inputs": [
        {
          "indexed": true,
          "internalType": "address",
          "name": "_owner",
          "type": "address"
        },
        {
          "indexed": true,
          "internalType": "address",
          "name": "_spender",
          "type": "address"
        },
        {
          "indexed": false,
          "internalType": "uint256",
          "name": "_value",
          "type": "uint256"
        }
      ],
      "name": "Approval",
      "type": "event"
    },
    {
      "anonymous": false,
      "inputs": [
        {
          "indexed": true,
          "internalType": "address",
          "name": "_from",
          "type": "address"
        },
        {
          "indexed": true,
          "internalType": "address",
          "name": "_to",
          "type": "address"
        },
        {
          "indexed": false,
          "internalType": "uint256",
          "name": "_value",
          "type": "uint256"
        }
      ],
      "name": "Transfer",
      "type": "event"
    },
    {
      "constant": true,
      "inputs": [
        {
          "internalType": "address",
          "name": "",
          "type": "address"
        },
        {
          "internalType": "address",
          "name": "",
          "type": "address"
        }
      ],
      "name": "allowance",
      "outputs": [
        {
          "internalType": "uint256",
          "name": "",
          "type": "uint256"
        }
      ],
      "payable": false,
      "stateMutability": "view",
      "type": "function"
    },
    {
      "constant": true,
      "inputs": [
        {
          "internalType": "address",
          "name": "",
          "type": "address"
        }
      ],
      "name": "balanceOf",
      "outputs": [
        {
          "internalType": "uint256",
          "name": "",
          "type": "uint256"
        }
      ],
      "payable": false,
      "stateMutability": "view",
      "type": "function"
    },
    {
      "constant": true,
      "inputs": [],
      "name": "decimals",
      "outputs": [
        {
          "internalType": "uint256",
          "name": "",
          "type": "uint256"
        }
      ],
      "payable": false,
      "stateMutability": "view",
      "type": "function"
    },
    {
      "constant": true,
      "inputs": [],
      "name": "name",
      "outputs": [
        {
          "internalType": "string",
          "name": "",
          "type": "string"
        }
      ],
      "payable": false,
      "stateMutability": "view",
      "type": "function"
    },
    {
      "constant": true,
      "inputs": [],
      "name": "symbol",
      "outputs": [
        {
          "internalType": "string",
          "name": "",
          "type": "string"
        }
      ],
      "payable": false,
      "stateMutability": "view",
      "type": "function"
    },
    {
      "constant": true,
      "inputs": [],
      "name": "totalSupply",
      "outputs": [
        {
          "internalType": "uint256",
          "name": "",
          "type": "uint256"
        }
      ],
      "payable": false,
      "stateMutability": "view",
      "type": "function"
    },
    {
      "constant": false,
      "inputs": [
        {
          "internalType": "address",
          "name": "_to",
          "type": "address"
        },
        {
          "internalType": "uint256",
          "name": "_value",
          "type": "uint256"
        }
      ],
      "name": "transfer",
      "outputs": [
        {
          "internalType": "bool",
          "name": "success",
          "type": "bool"
        }
      ],
      "payable": false,
      "stateMutability": "nonpayable",
      "type": "function"
    },
    {
      "constant": false,
      "inputs": [
        {
          "internalType": "address",
          "name": "_spender",
          "type": "address"
        },
        {
          "internalType": "uint256",
          "name": "_value",
          "type": "uint256"
        }
      ],
      "name": "apporve",
      "outputs": [
        {
          "internalType": "bool",
          "name": "success",
          "type": "bool"
        }
      ],
      "payable": false,
      "stateMutability": "nonpayable",
      "type": "function"
    },
    {
      "constant": false,
      "inputs": [
        {
          "internalType": "address",
          "name": "_from",
          "type": "address"
        },
        {
          "internalType": "address",
          "name": "_to",
          "type": "address"
        },
        {
          "internalType": "uint256",
          "name": "_value",
          "type": "uint256"
        }
      ],
      "name": "transferFrom",
      "outputs": [
        {
          "internalType": "bool",
          "name": "success",
          "type": "bool"
        }
      ],
      "payable": false,
      "stateMutability": "nonpayable",
      "type": "function"
    }
  ],
  "bytecode": "0x60c0604052600c60808190526b2932bbb0b932102a37b5b2b760a11b60a090815261002d9160009190610091565b50604080518082019091526003808252621495d160ea1b602090920191825261005891600191610091565b5069d3c21bcecceda1000000600255601260035534801561007857600080fd5b506002543360009081526004602052604090205561012c565b828054600181600116156101000203166002900490600052602060002090601f016020900481019282601f106100d257805160ff19168380011785556100ff565b828001600101855582156100ff579182015b828111156100ff5782518255916020019190600101906100e4565b5061010b92915061010f565b5090565b61012991905b8082111561010b5760008155600101610115565b90565b61057a8061013b6000396000f3fe608060405234801561001057600080fd5b50600436106100935760003560e01c8063484e015711610066578063484e01571461018157806370a08231146101ad57806395d89b41146101d3578063a9059cbb146101db578063dd62ed3e1461020757610093565b806306fdde031461009857806318160ddd1461011557806323b872dd1461012f578063313ce56714610179575b600080fd5b6100a0610235565b6040805160208082528351818301528351919283929083019185019080838360005b838110156100da5781810151838201526020016100c2565b50505050905090810190601f1680156101075780820380516001836020036101000a031916815260200191505b509250505060405180910390f35b61011d6102c3565b60408051918252519081900360200190f35b6101656004803603606081101561014557600080fd5b506001600160a01b038135811691602081013590911690604001356102c9565b604080519115158252519081900360200190f35b61011d6103a9565b6101656004803603604081101561019757600080fd5b506001600160a01b0381351690602001356103af565b61011d600480360360208110156101c357600080fd5b50356001600160a01b0316610432565b6100a0610444565b610165600480360360408110156101f157600080fd5b506001600160a01b03813516906020013561049e565b61011d6004803603604081101561021d57600080fd5b506001600160a01b0381358116916020013516610528565b6000805460408051602060026001851615610100026000190190941693909304601f810184900484028201840190925281815292918301828280156102bb5780601f10610290576101008083540402835291602001916102bb565b820191906000526020600020905b81548152906001019060200180831161029e57829003601f168201915b505050505081565b60025481565b6001600160a01b0383166000908152600460205260408120548211156102ee57600080fd5b6001600160a01b038416600090815260056020908152604080832033845290915290205482111561031e57600080fd5b6001600160a01b03808416600081815260046020908152604080832080548801905593881680835284832080548890039055338352600582528483208184528252918490208054879003905583518681529351929391927fddf252ad1be2c89b69c2b068fc378daa952ba7f163c4a11628f55a4df523b3ef9281900390910190a35060019392505050565b60035481565b336000908152600460205260408120548211156103cb57600080fd5b3360008181526005602090815260408083206001600160a01b03881680855290835292819020869055805186815290519293927f8c5be1e5ebec7d5bd14f71427d1e84f3dd0314c0f7b2291e5b200ac8c7c3b925929181900390910190a350600192915050565b60046020526000908152604090205481565b60018054604080516020600284861615610100026000190190941693909304601f810184900484028201840190925281815292918301828280156102bb5780601f10610290576101008083540402835291602001916102bb565b336000908152600460205260408120548211156104ba57600080fd5b336000818152600460209081526040808320805487900390556001600160a01b03871680845292819020805487019055805186815290519293927fddf252ad1be2c89b69c2b068fc378daa952ba7f163c4a11628f55a4df523b3ef929181900390910190a350600192915050565b60056020908152600092835260408084209091529082529020548156fea265627a7a72315820c42cd3448d6ae19cfba4910c494d124039f45bfe3d75a1ea85643cf2e988eb0d64736f6c63430005100032",
  "source": "pragma solidity ^0.5.0;\r\n\r\ncontract RWD {\r\n    string public name = \"Reward Token\";\r\n    string public symbol = \"RWD\";\r\n    uint public totalSupply = 1e24;\r\n    uint public decimals = 18;\r\n\r\n    event Transfer(address indexed _from, address indexed _to, uint _value);\r\n    event Approval(address indexed _owner, address indexed _spender, uint _value);\r\n\r\n    mapping(address => uint256) public balanceOf;\r\n    mapping(address => mapping(address => uint256)) public allowance;\r\n\r\n    constructor() public {\r\n        balanceOf[msg.sender] = totalSupply;\r\n    }\r\n\r\n    function transfer(address _to, uint _value) public returns(bool success) {\r\n        require(balanceOf[msg.sender] >= _value);\r\n        balanceOf[msg.sender] -= _value;\r\n        balanceOf[_to] += _value;\r\n        emit Transfer(msg.sender, _to, _value);\r\n        return true;\r\n    }\r\n\r\n    function apporve(address _spender, uint _value) public returns(bool success) {\r\n        require(balanceOf[msg.sender] >= _value); // ?\r\n        allowance[msg.sender][_spender] = _value;\r\n        emit Approval(msg.sender, _spender, _value);\r\n        return true;\r\n    }\r\n\r\n    function transferFrom(address _from, address _to, uint _value) public returns(bool success) {\r\n        require(balanceOf[_from] >= _value);\r\n        require(allowance[_from][msg.sender] >= _value);\r\n        balanceOf[_to] += _value;\r\n        balanceOf[_from] -= _value;\r\n        allowance[msg.sender][_from] -= _value;\r\n        emit Transfer(_from, _to, _value);\r\n        return true;\r\n    }\r\n}",
  "sourcePath": "C:\\Users\\TimOu_0911\\Desktop\\Decentral Bank\\src\\contracts\\RWD.sol",
  "compiler": {
    "name": "solc",
    "version": "0.5.16+commit.9c3226ce.Emscripten.clang"
  },
  "schemaVersion": "3.4.11",
  "updatedAt": "2023-03-08T14:26:49.082Z",
  "networkType": "ethereum",
  "devdoc": {
    "methods": {}
  },
  "userdoc": {
    "methods": {}
  }
}